:020000040000FA
:100000000C945D000C9485000C9485000C94850084
:100010000C9485000C9485000C9485000C9485004C
:100020000C9485000C9485000C9485000C94D302EC
:100030000C9485000C9485000C9485000C9485002C
:100040000C9431020C9485000C94A1020C947B0258
:100050000C9485000C9485000C9485000C9485000C
:100060000C9485000C94850000000008000201003B
:100070000003040700000000000000000000000072
:10008000250028002B0000000000240027002A0083
:10009000040404040404040402020202020203032E
:1000A0000303030301020408102040800102040836
:1000B00010200102040810205B0511241FBECFEFA1
:1000C000D8E0DEBFCDBF11E0A0E0B1E0E8E2F2E1B0
:1000D00002C005900D92A036B107D9F722E0A0E644
:1000E000B1E001C01D92A931B207E1F710E0CDE502
:1000F000D0E004C02197FE010E94E707CC35D1076C
:10010000C9F70E94F8050C9412090C94000090E0C5
:10011000FC01EC55FF4F249180579F4FFC018491C7
:10012000882399F090E0880F991FFC01EA57FF4F50
:10013000A591B491FC01E458FF4F859194918FB73C
:10014000F894EC91E22BEC938FBF089590E0FC01C2
:10015000E859FF4F2491FC01EC55FF4F3491FC010D
:10016000E057FF4FE491EE23C9F0222339F023300A
:1001700001F1A8F4213019F1223029F1F0E0EE0F5D
:10018000FF1FE458FF4FA591B4918FB7F894EC91FD
:10019000611126C030953E233C938FBF08952730D0
:1001A000A9F02830C9F0243049F7809180008F7D74
:1001B00003C0809180008F7780938000DFCF84B56B
:1001C0008F7784BDDBCF84B58F7DFBCF8091B0006E
:1001D0008F778093B000D2CF8091B0008F7DF9CF20
:1001E0003E2BDACF3FB7F89480916501909166017C
:1001F000A0916701B091680126B5A89B05C02F3F6B
:1002000019F00196A11DB11D3FBFBA2FA92F982F3C
:100210008827BC01CD01620F711D811D911D42E037
:10022000660F771F881F991F4A95D1F70895AF92DF
:10023000BF92CF92DF92EF92FF920F931F93CF93D3
:10024000DF936C017B018B01040F151FEB015E0135
:10025000AE18BF08C017D10759F06991D601ED91CA
:10026000FC910190F081E02DC6010995892B79F769
:10027000C501DF91CF911F910F91FF90EF90DF901B
:10028000CF90BF90AF900895FC01538D448D252FE2
:1002900030E0842F90E0821B930B541710F0CF9620
:1002A000089501970895FC01918D828D981761F052
:1002B000A28DAE0FBF2FB11D5D968C91928D9F5F69
:1002C0009F73928F90E008958FEF9FEF0895FC0148
:1002D000918D828D981731F0828DE80FF11D858DFB
:1002E00090E008958FEF9FEF0895FC01918D228D8E
:1002F000892F90E0805C9F4F821B91098F73992713
:10030000089589E691E00E94750121E0892B09F4A6
:1003100020E0822F089580E090E0892B29F00E9450
:10032000810181110C9400000895FC01A48DA80F97
:10033000B92FB11DA35ABF4F2C91848D90E0019627
:100340008F739927848FA689B7892C93A089B18947
:100350008C91837080648C93938D848D981306C0E8
:100360000288F389E02D80818F7D80830895EF924C
:10037000FF920F931F93CF93DF93EC0181E0888F5F
:100380009B8D8C8D98131AC0E889F989808185FF2F
:1003900015C09FB7F894EE89FF896083E889F989D1
:1003A00080818370806480839FBF81E090E0DF91D3
:1003B000CF911F910F91FF90EF900895F62E0B8D26
:1003C00010E00F5F1F4F0F731127E02E8C8D8E11E1
:1003D0000CC00FB607FCFACFE889F989808185FF48
:1003E000F5CFCE010E949501F1CFEB8DEC0FFD2FE3
:1003F000F11DE35AFF4FF0829FB7F8940B8FEA8903
:10040000FB8980818062CFCFCF93DF93EC01888D11
:100410008823B9F0AA89BB89E889F9898C9185FD7F
:1004200003C0808186FD0DC00FB607FCF7CF8C910D
:1004300085FFF2CF808185FFEDCFCE010E9495012F
:10044000E9CFDF91CF910895FC0101900020E9F7F9
:100450003197AF01481B590BBC0189E691E00C9420
:1004600017011F920F920FB60F9211242F933F93F3
:100470008F939F93AF93BF9380916101909162019D
:10048000A0916301B09164013091600123E0230FDA
:100490002D3758F50196A11DB11D20936001809361
:1004A000610190936201A0936301B0936401809114
:1004B000650190916601A0916701B0916801019674
:1004C000A11DB11D8093650190936601A093670102
:1004D000B0936801BF91AF919F918F913F912F9100
:1004E0000F900FBE0F901F90189526E8230F0296CD
:1004F000A11DB11DD2CF1F920F920FB60F921124E2
:100500002F933F934F935F936F937F938F939F931B
:10051000AF93BF93EF93FF9389E691E00E9495011B
:10052000FF91EF91BF91AF919F918F917F916F91CB
:100530005F914F913F912F910F900FBE0F901F90A1
:1005400018951F920F920FB60F9211242F938F932D
:100550009F93EF93FF93E0917901F0917A0180816D
:10056000E0917F01F091800182FD1BC0908180911C
:1005700082018F5F8F7320918301821741F0E09198
:100580008201F0E0E759FE4F958F80938201FF9141
:10059000EF919F918F912F910F900FBE0F901F9011
:1005A00018958081F4CF1F920F920FB60F921124ED
:1005B0002F923F924F925F926F927F928F929F9273
:1005C000AF92BF92CF92DF92EF92FF920F931F9361
:1005D0002F933F934F935F936F937F938F939F934B
:1005E000AF93BF93EF93FF93CF93DF9300D000D0EF
:1005F000CDB7DEB7F89420910602309107023A8316
:10060000298330E020E050E040E0A981BA811196D2
:100610008C9111978417150611F10CF11296ED913A
:10062000FC91E20FF31F80818E3008F08E508770AE
:10063000806480937C0080917A00806480937A004B
:1006400080917A0086FDFCCF8091780090917900AE
:10065000918780874F5F5F4F225C3F4FD6CF312C11
:10066000212C10E000E050E6852E5AEE952EA12CAC
:10067000B12CE981FA8181818017110609F00CF40F
:10068000EEC122813381220D331D3C832B83D9019E
:10069000D0964D905D906D907C90D397F901808DB0
:1006A000918DA28DB38D480E591E6A1E7B1E40AAE5
:1006B00051AA62AA73AA84899589A689B789720109
:1006C000E81AF90AF5AAE4AA868597850C97978710
:1006D00086878685978597FDC1C086859785873FE4
:1006E00099400CF0BEC0D9011E968D919C91EB8172
:1006F000FC819787868780859185C2ACD3AC8C15A9
:100700009D05CCF48285938565E070E00E94920798
:10071000CB01880F991F680F791F6E157F055CF458
:100720002085318580AD91AD2817390724F4808567
:10073000918591AF80AFAB81BC8118968D919C91D2
:100740001997C816D9069CF418962D913C911997C3
:10075000D6968D919C91D7978217930744F418965B
:100760008D919C911997D7969C938E93D697BBEFBA
:10077000EB16F1040CF4ABC0EB81FC818085918514
:10078000C816D9060CF0A3C084858111A0C082854B
:10079000938565E070E00E949207CB01880F991F56
:1007A000680F791F6E157F050CF091C021E024873A
:1007B00084899589A689B789F201E81BF90BAB8179
:1007C000BC811B96FC93EE931A97FD01448A558ACF
:1007D000668A778A85AD882371F015AE7C96CD0147
:1007E000C096AB81BC811A962D913C912193319397
:1007F0008E179F07B1F7EB81FC8184AD8823A1F1AF
:1008000014AE21E025AFAB81BC8112968D919C91F5
:10081000139797FD08C01C962C9161E0211101C02F
:1008200060E00E94A600EB81FC81E480F580F7FC8B
:10083000ECC0868597856AE070E00E9492077C8311
:100840006B838E2D0E9487002B813C81232B09F026
:10085000ACC060E08E2D0E94A600D7C090E080E082
:1008600046CF86EF99E043CFEB81FC817C964B81AC
:100870005C81425D5F4F30E020E082819381819313
:100880009193280F391F4E175F07B9F7AB81BC81D1
:100890001A968D919C911B979F969C938E939E97F1
:1008A000820F931F6AE070E00E947E079B0150E078
:1008B00040E0C501B4010E94C807EB81FC81378389
:1008C000268321E0258786EF99E097878687AB818D
:1008D000BC8118968D919C9119978C159D053CF5BE
:1008E0001C968C911C97882311F11C961C921C97C6
:1008F000D8964D915C91D997D6962D913C91D797EA
:10090000241B350B53963C932E93529752968D9100
:100910009C9197FD019695958795840F951FEB8186
:10092000FC8193AF82AF97AB86AB91AF80AFF5EC14
:10093000EF16F9E0FF060CF466CFAB81BC81509650
:100940008D919C915197DB969C938E93DA97E0E082
:10095000F2E0D796FC93EE93D697D996FC93EE935C
:10096000D89754964D925D926D927C925797E1E0A4
:10097000DC96EC93DC97DD961C92DD971D961C921D
:100980001D9717961C921E92169728E532E01B962B
:100990003C932E931A971C961C921C9784E690E029
:1009A00053969C938E9352972ECF8B819C818F3F31
:1009B000910511F461E04ECFF701FF27E859FF4F91
:1009C000E491E33071F150F4E130D1F0E23019F10B
:1009D000AB81BC81A038B1056CF73BCFE73069F142
:1009E000E830A1F1E430A1F780918000806280932B
:1009F00080002B813C8130938B0020938A0005C0BE
:100A000084B5806884BD9B8197BD0F5F1F4FBEE397
:100A10002B0E311C2ECE84B5806284BDAB81A8BD67
:100A2000F4CF80918000806880938000EB81FC810E
:100A3000F0938900E0938800E8CF8091B00080684F
:100A40008093B0003B813093B300DFCF8091B00042
:100A500080628093B0008B818093B400D6CF81E018
:100A6000E981FA81808778940F900F900F900F9012
:100A7000DF91CF91FF91EF91BF91AF919F918F91B6
:100A80007F916F915F914F913F912F911F910F91A6
:100A9000FF90EF90DF90CF90BF90AF909F908F909E
:100AA0007F906F905F904F903F902F900F900FBE70
:100AB0000F901F90189510926C0110926B0188EEA8
:100AC00093E0A0E0B0E080936D0190936E01A0935D
:100AD0006F01B09370018AE091E090936A01809376
:100AE000690185EC90E0909376018093750184EC28
:100AF00090E0909378018093770180EC90E0909360
:100B00007A018093790181EC90E090937C0180934D
:100B10007B0182EC90E090937E0180937D0186ECD6
:100B200090E09093800180937F0110928201109257
:100B3000830110928401109285011092120210928A
:100B4000110282E090E0909314028093130288E0F7
:100B500092E0909307028093060281E0809309025D
:100B60008EE390E00E94ED07FC018EE090E091831F
:100B700080838FEF9FEF938382839583848382E0CA
:100B800090E0A0E0B0E0808F918FA28FB38FDF0163
:100B90005C96CF01C0961D921D928A179B07D9F7CC
:100BA0001586178216828EEE92E0938782871486CE
:100BB00010AA11AA12AA13AA148A158A168A178AC9
:100BC00080E092E097AB86AB91AF80AF808991894E
:100BD00093AF82AF84E690E0938B828B81E084AF09
:100BE00015AE17861686F0930B02E0930A0208955D
:100BF000CF93DF93CDB7DEB7A1970FB6F894DEBFE2
:100C00000FBECDBF789484B5826084BD84B5816009
:100C100084BD85B5826085BD85B5816085BD8091C7
:100C20006E00816080936E0010928100809181003F
:100C30008260809381008091810081608093810037
:100C4000809180008160809380008091B1008460F9
:100C50008093B1008091B00081608093B00080915A
:100C60007A00846080937A0080917A008260809319
:100C70007A0080917A00816080937A0080917A0076
:100C8000806880937A001092C100E0917901F09120
:100C90007A0182E08083E0917501F0917601108203
:100CA000E0917701F09178018FEC808310928101BF
:100CB000E0917D01F0917E0186E08083E0917B01EF
:100CC000F0917C01808180618083E0917B01F091D3
:100CD0007C01808188608083E0917B01F0917C01C0
:100CE000808180688083E0917B01F0917C0180812C
:100CF0008F7D8083E0910A02F0910B0211821082B5
:100D00008DE090E093838283F89486E292E0918B69
:100D1000808B93AF82AF7894F12CE12CD12CC12C35
:100D2000809109028C151D0451F14CF100910A02C9
:100D300010910B020E0D1F1DF8018281938197FD0A
:100D400007C00E94870060E0F80182810E94A6002F
:100D5000F8018481958197FD0BC00E948700F801FE
:100D60001481812F0E94870060E0812F0E94A600DD
:100D7000FFEFCF1ADF0A2EE3E20EF11CD1CF0E9463
:100D8000F2006053784F8F4F9F4F60930C02709327
:100D90000D0280930E0290930F0210921002109297
:100DA000080210928000109282008CE080938100F3
:100DB0008CE790E0909389008093880082E0809394
:100DC0006F00789488E191E00E9424028AE391E028
:100DD0000E9424029AE0892E912CA12CB12C00E0D3
:100DE00010E0E0910A02F0910B02C680D780F894DF
:100DF0008585158678948823D9F18DE391E00E944A
:100E000024028AE391E00E9424028AE591E00E9494
:100E100024020D2C000CEE08FF08F7FE59C06DE20D
:100E200089E691E00E94B70122273327A9012C19F6
:100E30003D094E095F0919A2CE0181967C01CA01C4
:100E4000B901A50194010E94A607605DF7016293B4
:100E50007F01211531054105510589F7E114F104A0
:100E600019F0C7010E9424028AE391E00E94240243
:100E70000E94F2006B017C0184E1482E512C612C10
:100E8000712C0E94F2006C197D098E099F09683E41
:100E9000734081059105A8F3F1E04F1A51086108EC
:100EA000710828EEC20E23E0D21EE11CF11C411491
:100EB00051046104710429F70115110509F491CF5A
:100EC0000E948101882309F48CCF0E94000089CF01
:100ED000A701960119A2CE0181967C01CA01B90130
:100EE000A50194010E94A607605DF70162937F014E
:100EF000211531054105510589F7B0CFAA1BBB1B50
:100F000051E107C0AA1FBB1FA617B70710F0A61B09
:100F1000B70B881F991F5A95A9F780959095BC012A
:100F2000CD01089597FB072E16F4009407D077FDA6
:100F300009D00E947E0707FC05D03EF4909581956C
:100F40009F4F0895709561957F4F0895A1E21A2EE5
:100F5000AA1BBB1BFD010DC0AA1FBB1FEE1FFF1F5D
:100F6000A217B307E407F50720F0A21BB30BE40BAD
:100F7000F50B661F771F881F991F1A9469F76095F4
:100F80007095809590959B01AC01BD01CF010895AE
:100F9000052E97FB1EF400940E94DF0757FD07D033
:100FA0000E94A60707FC03D04EF40C94DF0750956F
:100FB0004095309521953F4F4F4F5F4F0895909545
:100FC0008095709561957F4F8F4F9F4F0895EE0FDD
:100FD000FF1F0590F491E02D09940F931F93CF9379
:100FE000DF938230910510F482E090E0E0911702E7
:100FF000F091180230E020E0B0E0A0E0309799F4E2
:101000002115310509F44AC0281B390B243031055C
:10101000D8F58A819B816115710589F1FB01938364
:101020008283FE0111C040815181028113814817E2
:101030005907E0F04817590799F4109761F0129694
:101040000C93129713961C933296CF01DF91CF9198
:101050001F910F9108950093170210931802F4CF77
:101060002115310551F04217530738F0A901DB0172
:101070009A01BD01DF01F801C1CFEF01F9CF9093D3
:10108000180280931702CDCFFE01E20FF31F819368
:1010900091932250310939832883D7CF20911502AB
:1010A00030911602232B41F420910201309103016B
:1010B0003093160220931502209100013091010116
:1010C0002115310541F42DB73EB7409104015091EF
:1010D0000501241B350BE0911502F0911602E21771
:1010E000F307A0F42E1B3F0B2817390778F0AC014B
:1010F0004E5F5F4F2417350748F04E0F5F1F509328
:10110000160240931502819391939FCFF0E0E0E0A7
:101110009CCFCF93DF930097E9F0FC0132971382C5
:101120001282A0911702B0911802ED0130E020E088
:101130001097A1F420813181820F931F2091150215
:10114000309116022817390709F061C0F093160292
:10115000E0931502DF91CF910895EA01CE17DF07E2
:10116000E8F54A815B819E0141155105B1F7E9011E
:10117000FB83EA8349915991C40FD51FEC17FD07F2
:1011800061F4808191810296840F951FE901998312
:101190008883828193819B838A83F0E0E0E01296CA
:1011A0008D919C9113970097B9F52D913C911197D2
:1011B000CD010296820F931F2091150230911602E5
:1011C0002817390739F6309751F510921802109206
:1011D0001702B0931602A0931502BCCFD383C2832B
:1011E00040815181840F951FC817D90761F44E5F64
:1011F0005F4F88819981480F591F518340838A81AD
:101200009B81938382832115310509F0B0CFF09340
:101210001802E09317029ECFFD01DC01C0CF1382BC
:101220001282D7CFF894FFCF00001902800000008F
:101230000000B70117014401040275015301670161
:101240005765206372656174656420612070756CF8
:10125000736553656E736F72204F626A65637420A5
:1012600021000D0A00E299A5202041204865617205
:1012700074426561742048617070656E65642021F8
:08128000200042504D3A20000D
:107E0000112484B714BE81FFF0D085E080938100F7
:107E100082E08093C00088E18093C10086E0809377
:107E2000C20080E18093C4008EE0C9D0259A86E02C
:107E300020E33CEF91E0309385002093840096BBD3
:107E4000B09BFECF1D9AA8958150A9F7CC24DD24C4
:107E500088248394B5E0AB2EA1E19A2EF3E0BF2EE7
:107E6000A2D0813461F49FD0082FAFD0023811F036
:107E7000013811F484E001C083E08DD089C08234E0
:107E800011F484E103C0853419F485E0A6D080C0E4
:107E9000853579F488D0E82EFF2485D0082F10E0AE
:107EA000102F00270E291F29000F111F8ED06801E7
:107EB0006FC0863521F484E090D080E0DECF843638
:107EC00009F040C070D06FD0082F6DD080E0C81688
:107ED00080E7D80618F4F601B7BEE895C0E0D1E017
:107EE00062D089930C17E1F7F0E0CF16F0E7DF06D8
:107EF00018F0F601B7BEE89568D007B600FCFDCFD4
:107F0000A601A0E0B1E02C9130E011968C91119780
:107F100090E0982F8827822B932B1296FA010C0160
:107F200087BEE89511244E5F5F4FF1E0A038BF0790
:107F300051F7F601A7BEE89507B600FCFDCF97BE46
:107F4000E89526C08437B1F42ED02DD0F82E2BD052
:107F50003CD0F601EF2C8F010F5F1F4F84911BD097
:107F6000EA94F801C1F70894C11CD11CFA94CF0C13
:107F7000D11C0EC0853739F428D08EE10CD085E9AC
:107F80000AD08FE07ACF813511F488E018D01DD067
:107F900080E101D065CF982F8091C00085FFFCCF94
:107FA0009093C60008958091C00087FFFCCF809118
:107FB000C00084FD01C0A8958091C6000895E0E648
:107FC000F0E098E1908380830895EDDF803219F02E
:107FD00088E0F5DFFFCF84E1DECF1F93182FE3DFCA
:107FE0001150E9F7F2DF1F91089580E0E8DFEE27F6
:047FF000FF270994CA
:027FFE00040479
:00000001FF
