:100000000C9463000C948B000C948B000C9475047E
:100010000C9475040C9475040C948B000C948B0058
:100020000C948B000C948B000C948B000C94ED04BE
:100030000C948B000C948B000C948B000C948B0014
:100040000C94D3030C948B000C9443040C941D0467
:100050000C948B000C948B000C948B000C948B00F4
:100060000C948B000C948B000000000024002700EF
:100070002A0000000008000201000003040700003D
:1000800000000000000000000000230026002900FE
:1000900000000000250028002B00040404040404D0
:1000A0000404020202020202030303030303010227
:1000B00004081020408001020408102001020408F6
:1000C00010207607BA0A11241FBECFEFD8E0DEBF9A
:1000D000CDBF11E0A0E0B1E0EEEEF8E102C0059086
:1000E0000D92AA3BB107D9F722E0AAEBB1E001C01B
:1000F0001D92A63DB207E1F710E0C2E6D0E004C0D1
:100100002197FE010E943F0BC136D107C9F70E941B
:100110007B080C946A0C0C94000090E0FC01EE58F3
:10012000FF4F2491FC01E255FF4F3491FC01E6564C
:10013000FF4FE491EE23C9F0222339F0233001F17F
:10014000A8F4213019F1223029F1F0E0EE0FFF1F61
:10015000E057FF4FA591B4918FB7F894EC916111DE
:1001600026C030953E233C938FBF08952730A9F0D9
:100170002830C9F0243049F7809180008F7D03C07A
:10018000809180008F7780938000DFCF84B58F7758
:1001900084BDDBCF84B58F7DFBCF8091B0008F779E
:1001A0008093B000D2CF8091B0008F7DF9CF3E2BED
:1001B000DACFCF93DF9390E0FC01E255FF4F24911B
:1001C00086569F4FFC0184918823D1F090E0880FE0
:1001D000991FFC01E859FF4FA591B491FC01E0572C
:1001E000FF4FC591D49161110EC09FB7F8948C91C7
:1001F000E22FE0958E238C932881E223E8839FBF32
:10020000DF91CF9108958FB7F894EC91E22BEC93A6
:100210008FBFF6CF3FB7F89480910302909104020C
:10022000A0910502B091060226B5A89B05C02F3FFC
:1002300019F00196A11DB11D3FBFBA2FA92F982F0C
:100240008827BC01CD01620F711D811D911D42E007
:10025000660F771F881F991F4A95D1F708958F92CF
:100260009F92AF92BF92CF92DF92EF92FF924B019B
:100270005C010E940A016B017C010E940A016C1959
:100280007D098E099F09683E734081059105A8F399
:1002900021E0821A9108A108B10888EEC80E83E017
:1002A000D81EE11CF11C81149104A104B10429F7AA
:1002B000FF90EF90DF90CF90BF90AF909F908F9086
:1002C0000895AF92BF92CF92DF92EF92FF920F9379
:1002D0001F93CF93DF936C017B018B01040F151FDC
:1002E000EB015E01AE18BF08C017D10759F0699144
:1002F000D601ED91FC910190F081E02DC6010995A8
:10030000892B79F7C501DF91CF911F910F91FF9054
:10031000EF90DF90CF90BF90AF900895FC01538D88
:10032000448D252F30E0842F90E0821B930B5417CF
:1003300010F0CF96089501970895FC01918D828D5C
:10034000981761F0A28DAE0FBF2FB11D5D968C91F5
:10035000928D9F5F9F73928F90E008958FEF9FEF34
:100360000895FC01918D828D981731F0828DE80FF0
:10037000F11D858D90E008958FEF9FEF0895FC01AA
:10038000918D228D892F90E0805C9F4F821B910977
:100390008F739927089587E092E00E94BF0121E0C2
:1003A000892B09F420E0822F089580E090E0892BCA
:1003B00029F00E94CB0181110C9400000895FC01EA
:1003C000A48DA80FB92FB11DA35ABF4F2C91848DB6
:1003D00090E001968F739927848FA689B7892C9313
:1003E000A089B1898C91837080648C93938D848D66
:1003F000981306C00288F389E02D80818F7D808369
:100400000895EF92FF920F931F93CF93DF93EC0128
:1004100081E0888F9B8D8C8D98131AC0E889F989AB
:10042000808185FF15C09FB7F894EE89FF896083AE
:10043000E889F98980818370806480839FBF81E02F
:1004400090E0DF91CF911F910F91FF90EF90089571
:10045000F62E0B8D10E00F5F1F4F0F731127E02E4C
:100460008C8D8E110CC00FB607FCFACFE889F98984
:10047000808185FFF5CFCE010E94DF01F1CFEB8DAA
:10048000EC0FFD2FF11DE35AFF4FF0829FB7F89458
:100490000B8FEA89FB8980818062CFCFCF93DF9376
:1004A000EC01888D8823B9F0AA89BB89E889F9898C
:1004B0008C9185FD03C0808186FD0DC00FB607FCC1
:1004C000F7CF8C9185FFF2CF808185FFEDCFCE01F4
:1004D0000E94DF01E9CFDF91CF9108952091FC01C7
:1004E0003091FD012817390771F49091FA0180913C
:1004F000FB01981741F0E091FA01F0E0E654FE4F5D
:10050000808190E008958FEF9FEF08950895EF9216
:10051000FF920F931F93CF93DF93DC015C96ED90D6
:10052000FC905D97E114F10479F481E090E013967A
:100530009C938E93129790E080E0DF91CF911F9172
:100540000F91FF90EF9008955196ED91FC91529785
:1005500050968C915097982F90950FB75E962C914E
:100560005E97122F127021FD6095F894208111235F
:1005700019F1282B2083E7012197F1F728E0462F76
:1005800050E0308160FF1AC0382B3083E70121979B
:10059000F1F7BA0175956795215089F7112381F01C
:1005A0008081892380830FBF5C968D919C910197F8
:1005B000F1F781E090E0C1CF2923DCCF3923E5CFEB
:1005C0009081892BEFCF2091FC013091FD012817FC
:1005D000390761F48091FB012091FA0190E0805C81
:1005E0009F4F821B91098F739927089590E080E0B7
:1005F00008952091FC013091FD0128173907B9F4C5
:100600009091FA018091FB01981789F0E091FA012D
:10061000F0E0E654FE4F80812091FA0130E02F5F38
:100620003F4F2F7333272093FA0190E008958FEF07
:100630009FEF089590E080E00895FB010190002075
:10064000E9F73197AF01461B570BDC01ED91FC91A7
:100650000280F381E02D09944F925F926F927F9216
:100660008F929F92AF92BF92CF92DF92EF92FF92C2
:100670000F931F93CF93DF93CDB7DEB7A1970FB63C
:10068000F894DEBF0FBECDBF8C016B01770FEE0873
:10069000FF08F7FE50C0DC01ED91FC910190F08164
:1006A000E02D6DE209955C0122273327A9012C1961
:1006B0003D094E095F0919A2FE01B1967F019AE03A
:1006C000492E512C612C712CCA01B901A301920150
:1006D0000E94FE0A605DD7016E937D0121153105F0
:1006E0004105510589F790E080E0109721F0BD01A8
:1006F000C8010E941D03A80EB91E6AE271E0C8017C
:100700000E941D038A0D9B1DA1960FB6F894DEBFB3
:100710000FBECDBFDF91CF911F910F91FF90EF9052
:10072000DF90CF90BF90AF909F908F907F906F9011
:100730005F904F900895A701960119A2FE01B1960E
:100740007F018AE0882E912CA12CB12CCA01B9011D
:10075000A50194010E94FE0A605DD7016E937D01A0
:10076000211531054105510589F7B12CA12C1097B0
:1007700021F2BD01C8010E941D035C01BECF0F9391
:100780001F93CF93DF93EC010E941D038C016AE25B
:1007900071E0CE010E941D03800F911FDF91CF9168
:1007A0001F910F9108951F920F920FB60F9211246F
:1007B0002F933F938F939F93AF93BF938091FF01AC
:1007C00090910002A0910102B09102023091FE01CD
:1007D00023E0230F2D3758F50196A11DB11D20935D
:1007E000FE018093FF0190930002A0930102B09359
:1007F00002028091030290910402A0910502B0913F
:1008000006020196A11DB11D80930302909304027C
:10081000A0930502B0930602BF91AF919F918F9173
:100820003F912F910F900FBE0F901F90189526E8C3
:10083000230F0296A11DB11DD2CF1F920F920FB6AA
:100840000F9211242F933F934F935F936F937F9356
:100850008F939F93AF93BF93EF93FF9387E092E0C3
:100860000E94DF01FF91EF91BF91AF919F918F9116
:100870007F916F915F914F913F912F910F900FBE9C
:100880000F901F9018951F920F920FB60F92112480
:100890002F938F939F93EF93FF93E0911702F09123
:1008A00018028081E0911D02F0911E0282FD1BC0A2
:1008B0009081809120028F5F8F7320912102821797
:1008C00041F0E0912002F0E0E95FFD4F958F8093C9
:1008D0002002FF91EF919F918F912F910F900FBE6A
:1008E0000F901F9018958081F4CF1F920F920FB632
:1008F0000F9211242F933F934F935F936F937F93A6
:100900008F939F93AF93BF93EF93FF93E091FC017D
:10091000F091FD01309749F0A685B7858585968DC4
:1009200091FF14C09C918923A1F4FF91EF91BF9195
:10093000AF919F918F917F916F915F914F913F9177
:100940002F910F900FBE0F901F9018959C918923A7
:1009500061F7A389B4899C918589809589238C93BB
:10096000868997890197F1F7608D718DA685B78586
:10097000558538E020E0CB010197F1F7822F90E018
:1009800095958795282F4C91452309F02068315083
:1009900091F7868D81FD20958091FB0190E0019675
:1009A0008F7399273091FA01381799F0A091FB01C4
:1009B000B0E0A654BE4F2C938093FB01828D938DA3
:1009C0000197F1F7A389B4898C919589892B8C9330
:1009D000ACCF868D8160868FF1CF1F920F920FB6BC
:1009E0000F9211242F923F924F925F926F927F92BB
:1009F0008F929F92AF92BF92CF92DF92EF92FF922F
:100A00000F931F932F933F934F935F936F937F9316
:100A10008F939F93AF93BF93EF93FF93CF93DF9306
:100A200000D000D0CDB7DEB7F8942091A402309169
:100A3000A5023A83298330E020E050E040E0A9811C
:100A4000BA8111968C9111978417150611F10CF14A
:100A50001296ED91FC91E20FF31F80818E3008F029
:100A60008E508770806480937C0080917A008064CF
:100A700080937A0080917A0086FDFCCF8091780087
:100A800090917900918780874F5F5F4F225C3F4F45
:100A9000D6CF312C212C10E000E050E6852E5AEE06
:100AA000952EA12CB12CE981FA8181818017110644
:100AB00009F00CF4EFC122813381220D331D3C83F8
:100AC0002B83D901D0964D905D906D907C90D397FB
:100AD000F901808D918DA28DB38D480E591E6A1E2D
:100AE0007B1E40AA51AA62AA73AA84899589A68905
:100AF000B7897201E81AF90AF5AAE4AA86859785EA
:100B00000C97978786878685978597FDC2C08685CF
:100B10009785873F99400CF0BFC0D9011E968D91F3
:100B20009C91EB81FC819787868780859185C2ACFB
:100B3000D3AC8C159D05CCF48285938565E070E07F
:100B40000E94EA0ACB01880F991F680F791F6E1562
:100B50007F055CF42085318580AD91AD281739077C
:100B600024F48085918591AF80AFAB81BC811896CC
:100B70008D919C911997C816D9069CF418962D91C1
:100B80003C911997D6968D919C91D7978217930790
:100B900044F418968D919C911997D7969C938E93B7
:100BA000D697BBEFEB16F1040CF4ACC0EB81FC81E3
:100BB00080859185C816D9060CF0A4C08485811162
:100BC000A1C08285938565E070E00E94EA0ACB01AE
:100BD000880F991F680F791F6E157F050CF092C062
:100BE00021E0248784899589A689B789F201E81BC9
:100BF000F90BAB81BC811B96FC93EE931A97FD0118
:100C0000448A558A668A778A85AD882371F015AE45
:100C10007C96CD01C096AB81BC811A962D913C91FA
:100C2000219331938E179F07B1F7EB81FC8184AD3F
:100C30008823A9F114AE21E025AFAB81BC811296C7
:100C40008D919C91139797FD08C01C962C9161E0A3
:100C5000211101C060E00E948D00EB81FC81E480E5
:100C6000F580F7FCEDC0868597856AE070E00E940C
:100C7000EA0A7C836B8361E08E2D0E94D9002B8170
:100C80003C81232B09F0ACC060E08E2D0E948D00CA
:100C9000D7C090E080E045CF86EF99E042CFEB816E
:100CA000FC817C964B815C81425D5F4F30E020E0AF
:100CB0008281938181939193280F391F4E175F078B
:100CC000B9F7AB81BC811A968D919C911B979F9629
:100CD0009C938E939E97820F931F6AE070E00E9410
:100CE000D60A9B0150E040E0C501B4010E94200BF0
:100CF000EB81FC813783268321E0258786EF99E00D
:100D000097878687AB81BC8118968D919C911997A6
:100D10008C159D053CF51C968C911C97882311F130
:100D20001C961C921C97D8964D915C91D997D6969B
:100D30002D913C91D797241B350B53963C932E93C2
:100D4000529752968D919C9197FD01969595879516
:100D5000840F951FEB81FC8193AF82AF97AB86AB7D
:100D600091AF80AFF5ECEF16F9E0FF060CF465CF1C
:100D7000AB81BC8150968D919C915197DB969C9351
:100D80008E93DA97E0E0F2E0D796FC93EE93D69755
:100D9000D996FC93EE93D89754964D925D926D92AE
:100DA0007C925797E1E0DC96EC93DC97DD961C9201
:100DB000DD971D961C921D9717961C921E921697F2
:100DC00028E532E01B963C932E931A971C961C92B2
:100DD0001C9784E690E053969C938E9352972DCF68
:100DE0008B819C818F3F910511F461E04ECFF7011B
:100DF000FF27EE58FF4FE491E33071F150F4E130FA
:100E0000D1F0E23019F1AB81BC81A038B1056CF7AB
:100E10003BCFE73069F1E830A1F1E430A1F78091F0
:100E200080008062809380002B813C8130938B0016
:100E300020938A0005C084B5806884BD9B8197BDDE
:100E40000F5F1F4FBEE32B0E311C2DCE84B5806289
:100E500084BDAB81A8BDF4CF809180008068809371
:100E60008000EB81FC81F0938900E0938800E8CF5B
:100E70008091B00080688093B0003B813093B300D4
:100E8000DFCF8091B00080628093B0008B8180932F
:100E9000B400D6CF81E0E981FA81808778940F9001
:100EA0000F900F900F90DF91CF91FF91EF91BF9135
:100EB000AF919F918F917F916F915F914F913F91F2
:100EC0002F911F910F91FF90EF90DF90CF90BF90E7
:100ED000AF909F908F907F906F905F904F903F90DA
:100EE0002F900F900FBE0F901F90189510920A022E
:100EF0001092090288EE93E0A0E0B0E080930B022C
:100F000090930C02A0930D02B0930E022AE031E000
:100F1000309308022093070225EC30E0309314024E
:100F20002093130224EC30E0309316022093150234
:100F300020EC30E0309318022093170221EC30E0CF
:100F400030931A022093190222EC30E030931C02F5
:100F500020931B0226EC30E030931E0220931D02EA
:100F6000109220021092210210922202109223026B
:100F70001092B6021092B5028093B7029093B80215
:100F8000A093B902B093BA028CE191E09093B402BD
:100F90008093B3021092CA021092C9021092CC023E
:100FA0001092CB021092CE021092CD021092D0027B
:100FB0001092CF026091D1026E7F6D7F6093D1025B
:100FC0006695617081E068278AE00E948D0061E08B
:100FD0008AE00E94D900E8EBF0E0E491E093C302DC
:100FE000E4EAF0E0E491F0E0EE0FFF1FE057FF4F7E
:100FF000859194919093C5028093C40260E089E04A
:101000000E94D9008091D10281FD04C061E089E095
:101010000E948D0089E08093BF02E7EBF0E0E4914D
:10102000E093C002E3EAF0E0E491F0E0EE0FFF1F8E
:10103000EA57FF4F859194919093C2028093C10229
:101040001092B0021092AF0282E090E09093B20250
:101050008093B10286EA92E09093A5028093A40265
:1010600081E08093A7028EE390E00E94450BFC0193
:101070008EE090E0918380838FEF9FEF9383828354
:101080009583848382E090E0A0E0B0E0808F918F30
:10109000A28FB38FDF015C96CF01C0961D921D9287
:1010A000A817B907D9F71586178216828EEE92E037
:1010B00093878287148610AA11AA12AA13AA148AE7
:1010C000158A168A178A80E092E097AB86AB91AFBB
:1010D00080AF8089918993AF82AF84E690E0938B53
:1010E000828B81E084AF15AE17861686F093A90235
:1010F000E093A8020895789484B5826084BD84B595
:10110000816084BD85B5826085BD85B5816085BD02
:1011100080916E00816080936E00109281008091BA
:101120008100826080938100809181008160809342
:101130008100809180008160809380008091B10067
:1011400084608093B1008091B00081608093B00092
:1011500080917A00846080937A0080917A00826026
:1011600080937A0080917A00816080937A008091E8
:101170007A00806880937A001092C10061E086E076
:101180000E94D90061E087E00E94D90061E082E01E
:101190000E94D9001092CE021092CD021092CC0281
:1011A0001092CB021092CA021092C9028DE991E00E
:1011B0009093D0028093CF029091BF02963108F0B5
:1011C00047C02DEB30E03093CA022093C9022BE9CF
:1011D00031E03093CC022093CB022CE231E030930B
:1011E000CE022093CD022091680084E0983048F030
:1011F00031E09E3008F430E081E001C0880F3A957C
:10120000EAF7822B809368002DE630E0983050F0AA
:101210002BE630E09E3030F02CE630E0963110F0D6
:1012200030E020E03093C7022093C602292F30E03F
:10123000983008F0B4C081E001C0880F9A95EAF7B1
:101240008093C8028091CF029091D0020197F1F76C
:101250008091CD029091CE02892B49F1E091FC0161
:10126000F091FD0182E0E33BF80709F1309739F096
:10127000A389B4899C918589809589238C938091D9
:10128000D1028E7F8093D1021092FB011092FA015D
:1012900083EB92E09093FD018093FC01E091C60204
:1012A000F091C70280819091C802892B8083E091E0
:1012B0001702F091180282E08083E0911302F0910E
:1012C00014021082E0911502F09116028FEC8083D7
:1012D00010921F02E0911B02F0911C0286E08083B5
:1012E000E0911902F0911A02808180618083E0917F
:1012F0001902F0911A02808188608083E0911902BE
:10130000F0911A02808180688083E0911902F09147
:101310001A0280818F7D8083E091A802F091A9025A
:10132000118210828DE090E093838283F89486E2AC
:1013300092E0918B808B93AF82AF789410E000E0C5
:10134000F12CE12C8091A7028E151F04A9F1A4F1C4
:10135000C091A802D091A902C00FD11F8A819B81A0
:1013600097FD07C061E00E94D90060E08A810E9479
:101370008D008C819D8197FD0CC061E00E94D90099
:10138000CC8161E08C2F0E94D90060E08C2F0E94FC
:101390008D008FEFE81AF80A025C1F4FD3CF9E3002
:1013A00040F42850310981E001C0880F2A95EAF7FE
:1013B00047CF2E503109F7CF0E940A016053784F72
:1013C0008F4F9F4F6093AA027093AB028093AC0241
:1013D0009093AD021092AE021092A602109280007D
:1013E000109282008CE0809381008CE790E09093D3
:1013F00089008093880082E080936F0078946DE28A
:1014000071E087E092E00E94BF03C0E0D0E061E0BD
:1014100086E00E948D006CEB72E080E090E00E941C
:101420002F0161E086E00E948D00E091A802F0911A
:10143000A90206811781F8948585158678948823FA
:1014400089F06FE471E087E092E00E94BF036CE6F0
:1014500071E087E092E00E941D03B80187E092E00E
:101460000E942C03E091A802F091A9028681978145
:10147000C3970CF472C060E086E00E948D0061E0CA
:1014800082E00E948D0061E087E00E948D006CEB9D
:1014900072E080E090E00E942F0161E087E00E940E
:1014A0008D0062E771E083EB92E00E94BF0368EE7B
:1014B00073E080E090E00E942F016CE771E083EB25
:1014C00092E00E94BF0368EE73E080E090E00E942B
:1014D0002F0163E971E083EB92E00E94BF03E0918A
:1014E000A802F091A9026681778183EB92E00E94C5
:1014F0002C0364E670E080E090E00E942F016AE136
:1015000083EB92E00E9487026AE271E083EB92E053
:101510000E941D0368EE73E080E090E00E942F01BE
:1015200068EA71E087E092E00E941D0361E070E0EC
:1015300087E092E00E942C0364E170E080E090E09C
:101540000E942F01209709F462CF0E94CB018823CB
:1015500009F45DCF0E9400005ACF86819781C2971F
:101560005CF760E082E00E948D0060E087E00E940E
:101570008D00E2CF8CE191E09093B4028093B302AE
:101580008091FC019091FD01835B924071F4E091A8
:10159000C602F091C70290818091C802809589238C
:1015A00080831092FD011092FC010895AA1BBB1BC1
:1015B00051E107C0AA1FBB1FA617B70710F0A61B53
:1015C000B70B881F991F5A95A9F780959095BC0174
:1015D000CD01089597FB072E16F4009407D077FDF0
:1015E00009D00E94D60A07FC05D03EF4909581955B
:1015F0009F4F0895709561957F4F0895A1E21A2E2F
:10160000AA1BBB1BFD010DC0AA1FBB1FEE1FFF1FA6
:10161000A217B307E407F50720F0A21BB30BE40BF6
:10162000F50B661F771F881F991F1A9469F760953D
:101630007095809590959B01AC01BD01CF010895F7
:10164000052E97FB1EF400940E94370B57FD07D020
:101650000E94FE0A07FC03D04EF40C94370B509501
:101660004095309521953F4F4F4F5F4F089590958E
:101670008095709561957F4F8F4F9F4F0895EE0F26
:10168000FF1F0590F491E02D09940F931F93CF93C2
:10169000DF938230910510F482E090E0E091D40273
:1016A000F091D50230E020E0B0E0A0E0309799F46E
:1016B0002115310509F44AC0281B390B24303105A6
:1016C000D8F58A819B816115710589F1FB019383AE
:1016D0008283FE0111C0408151810281138148172C
:1016E0005907E0F04817590799F4109761F01296DE
:1016F0000C93129713961C933296CF01DF91CF91E2
:101700001F910F9108950093D4021093D502F4CF46
:101710002115310551F04217530738F0A901DB01BB
:101720009A01BD01DF01F801C1CFEF01F9CF90931C
:10173000D5028093D402CDCFFE01E20FF31F819337
:1017400091932250310939832883D7CF2091D20237
:101750003091D302232B41F42091020130910301F7
:101760003093D3022093D2022091000130910101E5
:101770002115310541F42DB73EB740910401509138
:101780000501241B350BE091D202F091D302E21740
:10179000F307A0F42E1B3F0B2817390778F0AC0194
:1017A0004E5F5F4F2417350748F04E0F5F1F509371
:1017B000D3024093D202819391939FCFF0E0E0E077
:1017C0009CCFCF93DF930097E9F0FC01329713820F
:1017D0001282A091D402B091D502ED0130E020E058
:1017E0001097A1F420813181820F931F2091D202A2
:1017F0003091D3022817390709F061C0F093D30262
:10180000E093D202DF91CF910895EA01CE17DF076E
:10181000E8F54A815B819E0141155105B1F7E90167
:10182000FB83EA8349915991C40FD51FEC17FD073B
:1018300061F4808191810296840F951FE90199835B
:101840008883828193819B838A83F0E0E0E0129613
:101850008D919C9113970097B9F52D913C9111971B
:10186000CD010296820F931F2091D2023091D302B4
:101870002817390739F6309751F51092D502109292
:10188000D402B093D302A093D202BCCFD383C2833D
:1018900040815181840F951FC817D90761F44E5FAD
:1018A0005F4F88819981480F591F518340838A81F6
:1018B0009B81938382832115310509F0B0CFF0938A
:1018C000D502E093D4029ECFFD01DC01C0CF13828C
:1018D0001282D7CF10E0C2E6D0E004C0FE010E9421
:0E18E0003F0B2196C336D107C9F7F894FFCF0E
:1018EE000000D602800000000000010261018E019E
:1018FE004E02BF019D01B10100000000870261018F
:10190E001A038602E302F9026E020D0A00576520E1
:10191E006372656174656420612070756C736553C4
:10192E00656E736F72204F626A656374202100E2E8
:10193E0099A520204120486561727442656174202A
:10194E0048617070656E65642021200042504D3AEA
:10195E00200041542B434D47463D310041542B430B
:10196E004D47533D222B31323531323334353637F4
:10197E00220D004865617274205261746520546FA7
:10198E006F2048696768200042504D3A2020746FDE
:0A199E006F204869676821210000EE
:00000001FF
